{
  "contractName": "Staker",
  "abi": [
    {
      "inputs": [
        {
          "internalType": "address",
          "name": "_LPtoken",
          "type": "address"
        },
        {
          "internalType": "address",
          "name": "_RewToken",
          "type": "address"
        }
      ],
      "stateMutability": "nonpayable",
      "type": "constructor"
    },
    {
      "anonymous": false,
      "inputs": [
        {
          "indexed": true,
          "internalType": "uint256",
          "name": "startTime",
          "type": "uint256"
        },
        {
          "indexed": false,
          "internalType": "uint256",
          "name": "endTime",
          "type": "uint256"
        },
        {
          "indexed": false,
          "internalType": "uint256",
          "name": "tokensClaimed",
          "type": "uint256"
        }
      ],
      "name": "EmissionEnded",
      "type": "event"
    },
    {
      "anonymous": false,
      "inputs": [
        {
          "indexed": true,
          "internalType": "uint256",
          "name": "startTime",
          "type": "uint256"
        },
        {
          "indexed": false,
          "internalType": "uint256",
          "name": "endTime",
          "type": "uint256"
        },
        {
          "indexed": false,
          "internalType": "uint256",
          "name": "releaseAmount",
          "type": "uint256"
        }
      ],
      "name": "EmissionStarted",
      "type": "event"
    },
    {
      "anonymous": false,
      "inputs": [
        {
          "indexed": true,
          "internalType": "address",
          "name": "previousOwner",
          "type": "address"
        },
        {
          "indexed": true,
          "internalType": "address",
          "name": "newOwner",
          "type": "address"
        }
      ],
      "name": "OwnershipTransferred",
      "type": "event"
    },
    {
      "inputs": [],
      "name": "LPtoken",
      "outputs": [
        {
          "internalType": "contract IERC20",
          "name": "",
          "type": "address"
        }
      ],
      "stateMutability": "view",
      "type": "function",
      "constant": true
    },
    {
      "inputs": [],
      "name": "RewToken",
      "outputs": [
        {
          "internalType": "contract IERC20",
          "name": "",
          "type": "address"
        }
      ],
      "stateMutability": "view",
      "type": "function",
      "constant": true
    },
    {
      "inputs": [
        {
          "internalType": "uint256",
          "name": "",
          "type": "uint256"
        }
      ],
      "name": "checkPtRecord",
      "outputs": [
        {
          "internalType": "uint256",
          "name": "blocktime",
          "type": "uint256"
        },
        {
          "internalType": "uint256",
          "name": "totalStaked",
          "type": "uint256"
        },
        {
          "internalType": "uint256",
          "name": "intervalsToNext",
          "type": "uint256"
        }
      ],
      "stateMutability": "view",
      "type": "function",
      "constant": true
    },
    {
      "inputs": [],
      "name": "emissionStatus",
      "outputs": [
        {
          "internalType": "enum Staker.EmissionStates",
          "name": "",
          "type": "uint8"
        }
      ],
      "stateMutability": "view",
      "type": "function",
      "constant": true
    },
    {
      "inputs": [],
      "name": "endTime",
      "outputs": [
        {
          "internalType": "uint256",
          "name": "",
          "type": "uint256"
        }
      ],
      "stateMutability": "view",
      "type": "function",
      "constant": true
    },
    {
      "inputs": [],
      "name": "eraDuration",
      "outputs": [
        {
          "internalType": "uint256",
          "name": "",
          "type": "uint256"
        }
      ],
      "stateMutability": "view",
      "type": "function",
      "constant": true
    },
    {
      "inputs": [],
      "name": "intervalReward",
      "outputs": [
        {
          "internalType": "uint256",
          "name": "",
          "type": "uint256"
        }
      ],
      "stateMutability": "view",
      "type": "function",
      "constant": true
    },
    {
      "inputs": [],
      "name": "intervalStart",
      "outputs": [
        {
          "internalType": "uint256",
          "name": "",
          "type": "uint256"
        }
      ],
      "stateMutability": "view",
      "type": "function",
      "constant": true
    },
    {
      "inputs": [],
      "name": "owner",
      "outputs": [
        {
          "internalType": "address",
          "name": "",
          "type": "address"
        }
      ],
      "stateMutability": "view",
      "type": "function",
      "constant": true
    },
    {
      "inputs": [],
      "name": "releaseAmount",
      "outputs": [
        {
          "internalType": "uint256",
          "name": "",
          "type": "uint256"
        }
      ],
      "stateMutability": "view",
      "type": "function",
      "constant": true
    },
    {
      "inputs": [],
      "name": "renounceOwnership",
      "outputs": [],
      "stateMutability": "nonpayable",
      "type": "function"
    },
    {
      "inputs": [],
      "name": "rewardInterval",
      "outputs": [
        {
          "internalType": "uint256",
          "name": "",
          "type": "uint256"
        }
      ],
      "stateMutability": "view",
      "type": "function",
      "constant": true
    },
    {
      "inputs": [],
      "name": "startTime",
      "outputs": [
        {
          "internalType": "uint256",
          "name": "",
          "type": "uint256"
        }
      ],
      "stateMutability": "view",
      "type": "function",
      "constant": true
    },
    {
      "inputs": [
        {
          "internalType": "address",
          "name": "",
          "type": "address"
        }
      ],
      "name": "stateOfUsers",
      "outputs": [
        {
          "internalType": "uint256",
          "name": "usrIdxOfLastClaim",
          "type": "uint256"
        },
        {
          "internalType": "uint256",
          "name": "latestRemainingReward",
          "type": "uint256"
        }
      ],
      "stateMutability": "view",
      "type": "function",
      "constant": true
    },
    {
      "inputs": [],
      "name": "tokensClaimed",
      "outputs": [
        {
          "internalType": "uint256",
          "name": "",
          "type": "uint256"
        }
      ],
      "stateMutability": "view",
      "type": "function",
      "constant": true
    },
    {
      "inputs": [],
      "name": "totalStaked",
      "outputs": [
        {
          "internalType": "uint256",
          "name": "",
          "type": "uint256"
        }
      ],
      "stateMutability": "view",
      "type": "function",
      "constant": true
    },
    {
      "inputs": [
        {
          "internalType": "address",
          "name": "newOwner",
          "type": "address"
        }
      ],
      "name": "transferOwnership",
      "outputs": [],
      "stateMutability": "nonpayable",
      "type": "function"
    },
    {
      "inputs": [
        {
          "internalType": "uint256",
          "name": "_durationInDays",
          "type": "uint256"
        },
        {
          "internalType": "uint256",
          "name": "_releaseAmount",
          "type": "uint256"
        },
        {
          "internalType": "uint256",
          "name": "rewardInterval_hours",
          "type": "uint256"
        }
      ],
      "name": "createEra",
      "outputs": [],
      "stateMutability": "nonpayable",
      "type": "function"
    },
    {
      "inputs": [
        {
          "internalType": "address",
          "name": "user",
          "type": "address"
        }
      ],
      "name": "getUserRecord",
      "outputs": [
        {
          "components": [
            {
              "internalType": "uint256",
              "name": "mainChkPtIndex",
              "type": "uint256"
            },
            {
              "internalType": "uint256",
              "name": "totUsrStake",
              "type": "uint256"
            }
          ],
          "internalType": "struct Staker.UsrChkPt[]",
          "name": "",
          "type": "tuple[]"
        }
      ],
      "stateMutability": "view",
      "type": "function",
      "constant": true
    },
    {
      "inputs": [],
      "name": "getChkPtRecord",
      "outputs": [
        {
          "components": [
            {
              "internalType": "uint256",
              "name": "blocktime",
              "type": "uint256"
            },
            {
              "internalType": "uint256",
              "name": "totalStaked",
              "type": "uint256"
            },
            {
              "internalType": "uint256",
              "name": "intervalsToNext",
              "type": "uint256"
            }
          ],
          "internalType": "struct Staker.CheckPoint[]",
          "name": "",
          "type": "tuple[]"
        }
      ],
      "stateMutability": "view",
      "type": "function",
      "constant": true
    },
    {
      "inputs": [
        {
          "internalType": "uint256",
          "name": "amountLP",
          "type": "uint256"
        }
      ],
      "name": "stake",
      "outputs": [],
      "stateMutability": "nonpayable",
      "type": "function"
    },
    {
      "inputs": [
        {
          "internalType": "uint256",
          "name": "amountLP",
          "type": "uint256"
        }
      ],
      "name": "unStake",
      "outputs": [],
      "stateMutability": "nonpayable",
      "type": "function"
    }
  ],
  "bytecode": "0x60806040526000600660146101000a81548160ff021916908360038111156200002d576200002c6200028f565b5b0217905550620151806007556000600e60006101000a81548160ff0219169083151502179055503480156200006157600080fd5b5060405162002f3038038062002f30833981810160405281019062000087919062000214565b620000a76200009b6200013160201b60201c565b6200013960201b60201c565b81600560006101000a81548173ffffffffffffffffffffffffffffffffffffffff021916908373ffffffffffffffffffffffffffffffffffffffff16021790555080600660006101000a81548173ffffffffffffffffffffffffffffffffffffffff021916908373ffffffffffffffffffffffffffffffffffffffff1602179055505050620002dd565b600033905090565b60008060009054906101000a900473ffffffffffffffffffffffffffffffffffffffff169050816000806101000a81548173ffffffffffffffffffffffffffffffffffffffff021916908373ffffffffffffffffffffffffffffffffffffffff1602179055508173ffffffffffffffffffffffffffffffffffffffff168173ffffffffffffffffffffffffffffffffffffffff167f8be0079c531659141344cd1fd0a4f28419497f9722a3daafe3b4186f6b6457e060405160405180910390a35050565b6000815190506200020e81620002c3565b92915050565b600080604083850312156200022e576200022d620002be565b5b60006200023e85828601620001fd565b92505060206200025185828601620001fd565b9150509250929050565b600062000268826200026f565b9050919050565b600073ffffffffffffffffffffffffffffffffffffffff82169050919050565b7f4e487b7100000000000000000000000000000000000000000000000000000000600052602160045260246000fd5b600080fd5b620002ce816200025b565b8114620002da57600080fd5b50565b612c4380620002ed6000396000f3fe608060405234801561001057600080fd5b50600436106101425760003560e01c80639213baec116100b8578063bec4de3f1161007c578063bec4de3f14610333578063c062dc5f14610351578063c14cba3e1461036f578063ccc16dcc1461038d578063f2fde38b146103ab578063fba67517146103c757610142565b80639213baec1461029f5780639d5393cd146102bd578063a694fc3a146102db578063b44df72d146102f7578063b4a4ee141461031557610142565b806367e2efc61161010a57806367e2efc6146101ed5780636d9e91391461021d578063715018a61461023b57806378e9792514610245578063817b1cd2146102635780638da5cb5b1461028157610142565b806319b419cf146101475780633197cbb61461017957806332da1d5f146101975780634455a38f146101b35780635d3eea91146101d1575b600080fd5b610161600480360381019061015c9190611be4565b6103f8565b60405161017093929190612375565b60405180910390f35b610181610432565b60405161018e9190612331565b60405180910390f35b6101b160048036038101906101ac9190611c11565b610438565b005b6101bb6107ed565b6040516101c89190612331565b60405180910390f35b6101eb60048036038101906101e69190611be4565b6107f3565b005b61020760048036038101906102029190611b8a565b61109c565b60405161021491906120d9565b60405180910390f35b610225611151565b6040516102329190612331565b60405180910390f35b610243611157565b005b61024d6111df565b60405161025a9190612331565b60405180910390f35b61026b6111e5565b6040516102789190612331565b60405180910390f35b6102896111eb565b604051610296919061203c565b60405180910390f35b6102a7611214565b6040516102b49190612331565b60405180910390f35b6102c561121a565b6040516102d29190612116565b60405180910390f35b6102f560048036038101906102f09190611be4565b61122d565b005b6102ff6117b8565b60405161030c9190612331565b60405180910390f35b61031d6117be565b60405161032a91906120fb565b60405180910390f35b61033b6117e4565b6040516103489190612331565b60405180910390f35b6103596117ea565b6040516103669190612331565b60405180910390f35b6103776117f0565b60405161038491906120fb565b60405180910390f35b610395611816565b6040516103a291906120b7565b60405180910390f35b6103c560048036038101906103c09190611b8a565b611893565b005b6103e160048036038101906103dc9190611b8a565b61198b565b6040516103ef92919061234c565b60405180910390f35b600c818154811061040857600080fd5b90600052602060002090600302016000915090508060000154908060010154908060020154905083565b60035481565b6104406119af565b73ffffffffffffffffffffffffffffffffffffffff1661045e6111eb565b73ffffffffffffffffffffffffffffffffffffffff16146104b4576040517f08c379a00000000000000000000000000000000000000000000000000000000081526004016104ab90612251565b60405180910390fd5b600060038111156104c8576104c76126ad565b5b600660149054906101000a900460ff1660038111156104ea576104e96126ad565b5b14806105285750600380811115610504576105036126ad565b5b600660149054906101000a900460ff166003811115610526576105256126ad565b5b145b610567576040517f08c379a000000000000000000000000000000000000000000000000000000000815260040161055e906121b1565b60405180910390fd5b600183116105aa576040517f08c379a00000000000000000000000000000000000000000000000000000000081526004016105a1906122d1565b60405180910390fd5b60188111156105ee576040517f08c379a00000000000000000000000000000000000000000000000000000000081526004016105e5906122b1565b60405180910390fd5b60008111801561060b57506000816018610608919061261e565b14155b1561064b576040517f08c379a000000000000000000000000000000000000000000000000000000000815260040161064290612311565b60405180910390fd5b6000811461066857610e108161066191906124b6565b6007819055505b600a6007600082825461067b9190612485565b925050819055506000600660009054906101000a900473ffffffffffffffffffffffffffffffffffffffff1673ffffffffffffffffffffffffffffffffffffffff166323b872dd3330866040518463ffffffff1660e01b81526004016106e393929190612057565b602060405180830381600087803b1580156106fd57600080fd5b505af1158015610711573d6000803e3d6000fd5b505050506040513d601f19601f820116820180604052508101906107359190611bb7565b905080610777576040517f08c379a000000000000000000000000000000000000000000000000000000000815260040161076e90612271565b60405180910390fd5b620151808461078691906124b6565b6001819055508260048190555060006007546001546107a59190612485565b9050806004546107b59190612485565b6008819055506001600660146101000a81548160ff021916908360038111156107e1576107e06126ad565b5b02179055505050505050565b60015481565b60001515600e60009054906101000a900460ff16151514610849576040517f08c379a0000000000000000000000000000000000000000000000000000000008152600401610840906121d1565b60405180910390fd5b6001600e60006101000a81548160ff02191690831515021790555060026003811115610878576108776126ad565b5b600660149054906101000a900460ff16600381111561089a576108996126ad565b5b14806108d857506003808111156108b4576108b36126ad565b5b600660149054906101000a900460ff1660038111156108d6576108d56126ad565b5b145b610917576040517f08c379a000000000000000000000000000000000000000000000000000000000815260040161090e906122f1565b60405180910390fd5b6000600d60003373ffffffffffffffffffffffffffffffffffffffff1673ffffffffffffffffffffffffffffffffffffffff16815260200190815260200160002060405180606001604052908160008201805480602002602001604051908101604052809291908181526020016000905b828210156109ce57838290600052602060002090600202016040518060400160405290816000820154815260200160018201548152505081526020019060010190610988565b5050505081526020016001820154815260200160028201548152505090506000816000015190506000815111610a39576040517f08c379a0000000000000000000000000000000000000000000000000000000008152600401610a3090612171565b60405180910390fd5b60008160018351610a4a9190612510565b81518110610a5b57610a5a6126dc565b5b602002602001015160200151905083811015610aac576040517f08c379a0000000000000000000000000000000000000000000000000000000008152600401610aa3906121f1565b60405180910390fd5b610ab46119b7565b60026003811115610ac857610ac76126ad565b5b600660149054906101000a900460ff166003811115610aea57610ae96126ad565b5b148015610af957506003544210155b15610b3657600380811115610b1157610b106126ad565b5b600660149054906101000a900460ff166003811115610b3357610b326126ad565b5b50505b8360096000828254610b489190612510565b925050819055506000600c805480602002602001604051908101604052809291908181526020016000905b82821015610bc35783829060005260206000209060030201604051806060016040529081600082015481526020016001820154815260200160028201548152505081526020019060010190610b73565b505050509050600081519050600085604001519050600080600080896020015190505b60018951610bf49190612510565b811015610d1c57888181518110610c0e57610c0d6126dc565b5b60200260200101516000015193506001895111610c2b5785610c57565b88600182610c39919061242f565b81518110610c4a57610c496126dc565b5b6020026020010151600001515b9250888181518110610c6c57610c6b6126dc565b5b602002602001015160200151915060008490505b83811015610d0857878181518110610c9b57610c9a6126dc565b5b602002602001015160400151888281518110610cba57610cb96126dc565b5b60200260200101516020015184610cd19190612485565b600854610cde91906124b6565b610ce891906124b6565b86610cf3919061242f565b95508080610d00906125d5565b915050610c80565b508080610d14906125d5565b915050610be6565b5060018851610d2b9190612510565b600d60003373ffffffffffffffffffffffffffffffffffffffff1673ffffffffffffffffffffffffffffffffffffffff168152602001908152602001600020600101819055506000878b86610d8091906124b6565b610d8a9190612485565b90508085610d989190612510565b600d60003373ffffffffffffffffffffffffffffffffffffffff1673ffffffffffffffffffffffffffffffffffffffff16815260200190815260200160002060020181905550600d60003373ffffffffffffffffffffffffffffffffffffffff1673ffffffffffffffffffffffffffffffffffffffff16815260200190815260200160002060000160405180604001604052808881526020018d8b610e3d9190612510565b81525090806001815401808255809150506001900390600052602060002090600202016000909190919091506000820151816000015560208201518160010155505080600a6000828254610e91919061242f565b92505081905550600660009054906101000a900473ffffffffffffffffffffffffffffffffffffffff1673ffffffffffffffffffffffffffffffffffffffff1663a9059cbb33836040518363ffffffff1660e01b8152600401610ef592919061208e565b602060405180830381600087803b158015610f0f57600080fd5b505af1158015610f23573d6000803e3d6000fd5b505050506040513d601f19601f82011682018060405250810190610f479190611bb7565b610f86576040517f08c379a0000000000000000000000000000000000000000000000000000000008152600401610f7d90612231565b60405180910390fd5b600560009054906101000a900473ffffffffffffffffffffffffffffffffffffffff1673ffffffffffffffffffffffffffffffffffffffff1663a9059cbb338d6040518363ffffffff1660e01b8152600401610fe392919061208e565b602060405180830381600087803b158015610ffd57600080fd5b505af1158015611011573d6000803e3d6000fd5b505050506040513d601f19601f820116820180604052508101906110359190611bb7565b611074576040517f08c379a000000000000000000000000000000000000000000000000000000000815260040161106b90612131565b60405180910390fd5b505050505050505050506000600e60006101000a81548160ff02191690831515021790555050565b6060600d60008373ffffffffffffffffffffffffffffffffffffffff1673ffffffffffffffffffffffffffffffffffffffff168152602001908152602001600020600001805480602002602001604051908101604052809291908181526020016000905b8282101561114657838290600052602060002090600202016040518060400160405290816000820154815260200160018201548152505081526020019060010190611100565b505050509050919050565b60085481565b61115f6119af565b73ffffffffffffffffffffffffffffffffffffffff1661117d6111eb565b73ffffffffffffffffffffffffffffffffffffffff16146111d3576040517f08c379a00000000000000000000000000000000000000000000000000000000081526004016111ca90612251565b60405180910390fd5b6111dd6000611a87565b565b60025481565b60095481565b60008060009054906101000a900473ffffffffffffffffffffffffffffffffffffffff16905090565b600b5481565b600660149054906101000a900460ff1681565b6003808111156112405761123f6126ad565b5b600660149054906101000a900460ff166003811115611262576112616126ad565b5b14156112a3576040517f08c379a000000000000000000000000000000000000000000000000000000000815260040161129a90612211565b60405180910390fd5b60035442101580156112e85750600260038111156112c4576112c36126ad565b5b600660149054906101000a900460ff1660038111156112e6576112e56126ad565b5b145b15611365576112f56119b7565b6003600660146101000a81548160ff0219169083600381111561131b5761131a6126ad565b5b02179055506002547ff7c4cebc1185ca4109b7420ca3aabd945750120d475ad666afa1f94e51eba135600354600a5460405161135892919061234c565b60405180910390a26117b5565b60026003811115611379576113786126ad565b5b600660149054906101000a900460ff16600381111561139b5761139a6126ad565b5b14806113da5750600160038111156113b6576113b56126ad565b5b600660149054906101000a900460ff1660038111156113d8576113d76126ad565b5b145b611419576040517f08c379a000000000000000000000000000000000000000000000000000000000815260040161141090612191565b60405180910390fd5b6000600560009054906101000a900473ffffffffffffffffffffffffffffffffffffffff1673ffffffffffffffffffffffffffffffffffffffff166323b872dd3330856040518463ffffffff1660e01b815260040161147a93929190612057565b602060405180830381600087803b15801561149457600080fd5b505af11580156114a8573d6000803e3d6000fd5b505050506040513d601f19601f820116820180604052508101906114cc9190611bb7565b90508061150e576040517f08c379a000000000000000000000000000000000000000000000000000000000815260040161150590612291565b60405180910390fd5b60016003811115611522576115216126ad565b5b600660149054906101000a900460ff166003811115611544576115436126ad565b5b14156115da576002600660146101000a81548160ff021916908360038111156115705761156f6126ad565b5b02179055504260028190555060015460025461158c919061242f565b60038190555042600b819055506002547f29ff126400182fe635f6d472dde8a41c922ca7c3d1c87f976bfb78a2412015126003546004546040516115d192919061234c565b60405180910390a25b6115e26119b7565b81600960008282546115f4919061242f565b92505081905550600080600c8054905011611610576000611617565b600c805490505b90506000600d60003373ffffffffffffffffffffffffffffffffffffffff1673ffffffffffffffffffffffffffffffffffffffff168152602001908152602001600020600001805480602002602001604051908101604052809291908181526020016000905b828210156116c35783829060005260206000209060020201604051806040016040529081600082015481526020016001820154815250508152602001906001019061167d565b5050505090506000808251146117045781600183516116e29190612510565b815181106116f3576116f26126dc565b5b602002602001015160200151611707565b60005b9050600060405180604001604052808581526020018784611728919061242f565b8152509050600d60003373ffffffffffffffffffffffffffffffffffffffff1673ffffffffffffffffffffffffffffffffffffffff1681526020019081526020016000206000018190806001815401808255809150506001900390600052602060002090600202016000909190919091506000820151816000015560208201518160010155505050505050505b50565b600a5481565b600660009054906101000a900473ffffffffffffffffffffffffffffffffffffffff1681565b60075481565b60045481565b600560009054906101000a900473ffffffffffffffffffffffffffffffffffffffff1681565b6060600c805480602002602001604051908101604052809291908181526020016000905b8282101561188a578382906000526020600020906003020160405180606001604052908160008201548152602001600182015481526020016002820154815250508152602001906001019061183a565b50505050905090565b61189b6119af565b73ffffffffffffffffffffffffffffffffffffffff166118b96111eb565b73ffffffffffffffffffffffffffffffffffffffff161461190f576040517f08c379a000000000000000000000000000000000000000000000000000000000815260040161190690612251565b60405180910390fd5b600073ffffffffffffffffffffffffffffffffffffffff168173ffffffffffffffffffffffffffffffffffffffff16141561197f576040517f08c379a000000000000000000000000000000000000000000000000000000000815260040161197690612151565b60405180910390fd5b61198881611a87565b50565b600d6020528060005260406000206000915090508060010154908060020154905082565b600033905090565b600754600b546119c7919061242f565b421115611a85576000600754600b54426119e19190612510565b6119eb9190612485565b905060006040518060600160405280600b5481526020016009548152602001838152509050600c819080600181540180825580915050600190039060005260206000209060030201600090919091909150600082015181600001556020820151816001015560408201518160020155505060075482611a6a91906124b6565b600b6000828254611a7b919061242f565b9250508190555050505b565b60008060009054906101000a900473ffffffffffffffffffffffffffffffffffffffff169050816000806101000a81548173ffffffffffffffffffffffffffffffffffffffff021916908373ffffffffffffffffffffffffffffffffffffffff1602179055508173ffffffffffffffffffffffffffffffffffffffff168173ffffffffffffffffffffffffffffffffffffffff167f8be0079c531659141344cd1fd0a4f28419497f9722a3daafe3b4186f6b6457e060405160405180910390a35050565b600081359050611b5a81612bc8565b92915050565b600081519050611b6f81612bdf565b92915050565b600081359050611b8481612bf6565b92915050565b600060208284031215611ba057611b9f61270b565b5b6000611bae84828501611b4b565b91505092915050565b600060208284031215611bcd57611bcc61270b565b5b6000611bdb84828501611b60565b91505092915050565b600060208284031215611bfa57611bf961270b565b5b6000611c0884828501611b75565b91505092915050565b600080600060608486031215611c2a57611c2961270b565b5b6000611c3886828701611b75565b9350506020611c4986828701611b75565b9250506040611c5a86828701611b75565b9150509250925092565b6000611c708383611fad565b60608301905092915050565b6000611c888383611fef565b60408301905092915050565b611c9d81612544565b82525050565b6000611cae826123cc565b611cb881856123fc565b9350611cc3836123ac565b8060005b83811015611cf4578151611cdb8882611c64565b9750611ce6836123e2565b925050600181019050611cc7565b5085935050505092915050565b6000611d0c826123d7565b611d16818561240d565b9350611d21836123bc565b8060005b83811015611d52578151611d398882611c7c565b9750611d44836123ef565b925050600181019050611d25565b5085935050505092915050565b611d688161259f565b82525050565b611d77816125c3565b82525050565b6000611d8a60288361241e565b9150611d9582612710565b604082019050919050565b6000611dad60268361241e565b9150611db88261275f565b604082019050919050565b6000611dd0602e8361241e565b9150611ddb826127ae565b604082019050919050565b6000611df3602a8361241e565b9150611dfe826127fd565b604082019050919050565b6000611e1660348361241e565b9150611e218261284c565b604082019050919050565b6000611e39600a8361241e565b9150611e448261289b565b602082019050919050565b6000611e5c60288361241e565b9150611e67826128c4565b604082019050919050565b6000611e7f603c8361241e565b9150611e8a82612913565b604082019050919050565b6000611ea2602a8361241e565b9150611ead82612962565b604082019050919050565b6000611ec560208361241e565b9150611ed0826129b1565b602082019050919050565b6000611ee8602b8361241e565b9150611ef3826129da565b604082019050919050565b6000611f0b60278361241e565b9150611f1682612a29565b604082019050919050565b6000611f2e60328361241e565b9150611f3982612a78565b604082019050919050565b6000611f51603c8361241e565b9150611f5c82612ac7565b604082019050919050565b6000611f7460278361241e565b9150611f7f82612b16565b604082019050919050565b6000611f97603c8361241e565b9150611fa282612b65565b604082019050919050565b606082016000820151611fc3600085018261201e565b506020820151611fd6602085018261201e565b506040820151611fe9604085018261201e565b50505050565b604082016000820151612005600085018261201e565b506020820151612018602085018261201e565b50505050565b61202781612595565b82525050565b61203681612595565b82525050565b60006020820190506120516000830184611c94565b92915050565b600060608201905061206c6000830186611c94565b6120796020830185611c94565b612086604083018461202d565b949350505050565b60006040820190506120a36000830185611c94565b6120b0602083018461202d565b9392505050565b600060208201905081810360008301526120d18184611ca3565b905092915050565b600060208201905081810360008301526120f38184611d01565b905092915050565b60006020820190506121106000830184611d5f565b92915050565b600060208201905061212b6000830184611d6e565b92915050565b6000602082019050818103600083015261214a81611d7d565b9050919050565b6000602082019050818103600083015261216a81611da0565b9050919050565b6000602082019050818103600083015261218a81611dc3565b9050919050565b600060208201905081810360008301526121aa81611de6565b9050919050565b600060208201905081810360008301526121ca81611e09565b9050919050565b600060208201905081810360008301526121ea81611e2c565b9050919050565b6000602082019050818103600083015261220a81611e4f565b9050919050565b6000602082019050818103600083015261222a81611e72565b9050919050565b6000602082019050818103600083015261224a81611e95565b9050919050565b6000602082019050818103600083015261226a81611eb8565b9050919050565b6000602082019050818103600083015261228a81611edb565b9050919050565b600060208201905081810360008301526122aa81611efe565b9050919050565b600060208201905081810360008301526122ca81611f21565b9050919050565b600060208201905081810360008301526122ea81611f44565b9050919050565b6000602082019050818103600083015261230a81611f67565b9050919050565b6000602082019050818103600083015261232a81611f8a565b9050919050565b6000602082019050612346600083018461202d565b92915050565b6000604082019050612361600083018561202d565b61236e602083018461202d565b9392505050565b600060608201905061238a600083018661202d565b612397602083018561202d565b6123a4604083018461202d565b949350505050565b6000819050602082019050919050565b6000819050602082019050919050565b600081519050919050565b600081519050919050565b6000602082019050919050565b6000602082019050919050565b600082825260208201905092915050565b600082825260208201905092915050565b600082825260208201905092915050565b600061243a82612595565b915061244583612595565b9250827fffffffffffffffffffffffffffffffffffffffffffffffffffffffffffffffff0382111561247a5761247961264f565b5b828201905092915050565b600061249082612595565b915061249b83612595565b9250826124ab576124aa61267e565b5b828204905092915050565b60006124c182612595565b91506124cc83612595565b9250817fffffffffffffffffffffffffffffffffffffffffffffffffffffffffffffffff04831182151516156125055761250461264f565b5b828202905092915050565b600061251b82612595565b915061252683612595565b9250828210156125395761253861264f565b5b828203905092915050565b600061254f82612575565b9050919050565b60008115159050919050565b600081905061257082612bb4565b919050565b600073ffffffffffffffffffffffffffffffffffffffff82169050919050565b6000819050919050565b60006125aa826125b1565b9050919050565b60006125bc82612575565b9050919050565b60006125ce82612562565b9050919050565b60006125e082612595565b91507fffffffffffffffffffffffffffffffffffffffffffffffffffffffffffffffff8214156126135761261261264f565b5b600182019050919050565b600061262982612595565b915061263483612595565b9250826126445761264361267e565b5b828206905092915050565b7f4e487b7100000000000000000000000000000000000000000000000000000000600052601160045260246000fd5b7f4e487b7100000000000000000000000000000000000000000000000000000000600052601260045260246000fd5b7f4e487b7100000000000000000000000000000000000000000000000000000000600052602160045260246000fd5b7f4e487b7100000000000000000000000000000000000000000000000000000000600052603260045260246000fd5b600080fd5b7f5374616b657223756e7374616b653a204c5020746f6b656e207472616e73666560008201527f72206661696c6564000000000000000000000000000000000000000000000000602082015250565b7f4f776e61626c653a206e6577206f776e657220697320746865207a65726f206160008201527f6464726573730000000000000000000000000000000000000000000000000000602082015250565b7f5374616b657223756e7374616b653a20496e76616c696420636c61696d2e204e60008201527f6f207374616b65207265636f7264000000000000000000000000000000000000602082015250565b7f5374616b6572237374616b653a20456d697373696f6e2045726120686173206e60008201527f6f74207374617274656400000000000000000000000000000000000000000000602082015250565b7f5374616b6572236372656174654572613a20456d697373696f6e20457261206360008201527f757272656e746c7920696e2070726f6772657373000000000000000000000000602082015250565b7f4e6f205265656e74727900000000000000000000000000000000000000000000600082015250565b7f5374616b657223756e7374616b653a205265717565737420616d6f756e74203e60008201527f2062616c616e6365000000000000000000000000000000000000000000000000602082015250565b7f5374616b6572237374616b653a20456d697373696f6e2045726120686173206560008201527f6e6465642e20506c6561736520756e7374616b65202620636c61696d00000000602082015250565b7f5374616b657223756e7374616b653a2045544220726577617264207472616e7360008201527f666572206661696c656400000000000000000000000000000000000000000000602082015250565b7f4f776e61626c653a2063616c6c6572206973206e6f7420746865206f776e6572600082015250565b7f5374616b6572236372656174654572613a2045544220746f6b656e207472616e60008201527f73666572206661696c6564000000000000000000000000000000000000000000602082015250565b7f5374616b6572237374616b653a2045544220746f6b656e207472616e7366657260008201527f206661696c656400000000000000000000000000000000000000000000000000602082015250565b7f5374616b6572236372656174654572613a2052657761726420696e746572766160008201527f6c206d757374206265203c3d2031206461790000000000000000000000000000602082015250565b7f5374616b6572236372656174654572613a20526577617264206475726174696f60008201527f6e206d7573742062652067726561746572207468616e20312064617900000000602082015250565b7f5374616b657223756e7374616b653a20456d697373696f6e20457261206e6f7460008201527f2061637469766500000000000000000000000000000000000000000000000000602082015250565b7f5374616b6572236372656174654572613a2052657761726420696e746572766160008201527f6c206d7573742077686f6c6c792064697669646520696e746f20323400000000602082015250565b60048110612bc557612bc46126ad565b5b50565b612bd181612544565b8114612bdc57600080fd5b50565b612be881612556565b8114612bf357600080fd5b50565b612bff81612595565b8114612c0a57600080fd5b5056fea2646970667358221220e9329e4d60a773185363d000d2d8ec74ce2fae712219e6831c79ed867a998c2964736f6c63430008060033",
  "immutableReferences": {},
  "source": "// SPDX-License-Identifier: MIT\r\npragma solidity >=0.8.4;\r\n\r\nimport \"@openzeppelin/contracts/access/Ownable.sol\";\r\nimport \"@openzeppelin/contracts/token/ERC20/IERC20.sol\";\r\n\r\n/*  \r\n * The Staker contract controls the emission of ETB tokens as staking reward. \r\n * Method:\r\n * A user's rewards are only sent when a user claims/unstakes.\r\n * To keep rewards proportional and maintain the emission rate, we keep track of \r\n * the total stake and the time that this amount changes. Upon unstaking,\r\n * the user's total/partial stake is calculated and sent along with the \r\n * proportioned reward.\r\n */\r\ncontract Staker is Ownable {\r\n    uint public eraDuration;\r\n    uint public startTime;          // when 1st stake is made\r\n    uint public endTime;            // will be calculated\r\n    uint public releaseAmount;\r\n    IERC20 public LPtoken;\r\n    IERC20 public RewToken;\r\n\r\n    enum EmissionStates { NOT_STARTED, INITIALIZED, ERA_ACTIVE, ERA_ENDED }\r\n    EmissionStates public emissionStatus = EmissionStates.NOT_STARTED;\r\n\r\n    uint public rewardInterval = 24 hours; // reward calculations will not be per block but per interval\r\n    uint public intervalReward;\r\n\r\n    // STAKING STATE:\r\n    uint public totalStaked;        // latest total staked in contract\r\n    uint public tokensClaimed;      // total number of reward tokens claimed since staking genisis\r\n    uint public intervalStart;      // start time of current interval\r\n    \r\n    struct CheckPoint {\r\n        uint blocktime;             // block time at START of new reward interval\r\n        uint totalStaked;           // cumulative stake as at this reward interval\r\n        uint intervalsToNext;       // number of intervals to the next check point: in case of long periods of inactivity\r\n    }\r\n    CheckPoint[] public checkPtRecord; // keeps track of evolution of checkpoints, one per reward interval\r\n\r\n    // USER STATE: keep track of each user's stake amount change, with block time\r\n    struct UsrChkPt {\r\n        uint mainChkPtIndex;        // index of main CheckPoint[] array where change happened\r\n        uint totUsrStake;           // cumulative user stake as at this check point\r\n    }\r\n    struct UserState { \r\n        UsrChkPt[] userRecord;      // track record of all stake changes (stake & unstake)\r\n        uint usrIdxOfLastClaim;    // index of user UsrChkPt[] array where latest reward was calculated: prevents iterating from start every time\r\n        uint latestRemainingReward; // remainder of accumulated reward left if last claim was partial claim: prevents iterating from start every time\r\n    }\r\n    mapping( address => UserState ) public stateOfUsers; // -> use this mapping to iterate over [checkPtRecord] to calc stake reward (and optionally update latest total stake reward)\r\n\r\n    // EVENTS:\r\n    event EmissionStarted(uint indexed startTime, uint endTime, uint releaseAmount);\r\n    event EmissionEnded(uint indexed startTime, uint endTime, uint tokensClaimed);\r\n\r\n    // MODIFIERS:\r\n    bool private entered = false;\r\n    modifier noReentry() {\r\n        require(entered == false, \"No Reentry\");\r\n        entered = true;\r\n        _;\r\n        entered = false;\r\n    }\r\n\r\n    // -----------------------------\r\n    //      MAIN CONTRACT BODY:\r\n    // -----------------------------\r\n    /**\r\n     * @notice Configures the staking (LP) & reward tokens\r\n     */\r\n    constructor (address _LPtoken, address _RewToken) {\r\n        LPtoken = IERC20(_LPtoken);\r\n        RewToken = IERC20(_RewToken);\r\n    }\r\n\r\n    /**\r\n     * @notice Create a new Emission Era - only owner\r\n     * @param _durationInDays Specify number of days over which [_releaseAmount] should be released\r\n     * @param rewardInterval_hours Set to 0 to have default of 24 hrs\r\n     */\r\n    function createEra(uint _durationInDays, uint _releaseAmount, uint rewardInterval_hours) external onlyOwner() {\r\n        require(emissionStatus == EmissionStates.NOT_STARTED || emissionStatus == EmissionStates.ERA_ENDED, \"Staker#createEra: Emission Era currently in progress\");\r\n        require(_durationInDays > 1, \"Staker#createEra: Reward duration must be greater than 1 day\");\r\n        if(rewardInterval_hours > 24) {\r\n            revert(\"Staker#createEra: Reward interval must be <= 1 day\");\r\n        } else if(rewardInterval_hours > 0 && 24 % rewardInterval_hours != 0) {\r\n            revert(\"Staker#createEra: Reward interval must wholly divide into 24\");     // NB: One of: 1, 2, 3, 4, 8, 12, 24\r\n        } else if(rewardInterval_hours != 0) {\r\n            rewardInterval = rewardInterval_hours * 1 hours;                            // if rewardInterval_hours = 0, then it remains on the default value of 24 hrs\r\n        }\r\n\r\n        // FOR TESTING\r\n        rewardInterval /= 10;\r\n\r\n        bool txSuccess = RewToken.transferFrom(msg.sender, address(this), _releaseAmount);\r\n        require(txSuccess, \"Staker#createEra: ETB token transfer failed\");\r\n\r\n        eraDuration = _durationInDays *  1 days;\r\n        releaseAmount = _releaseAmount;\r\n        uint noOfIntervals = eraDuration / rewardInterval;\r\n        intervalReward = releaseAmount / noOfIntervals;\r\n\r\n        emissionStatus = EmissionStates.INITIALIZED;\r\n    }\r\n\r\n    /**\r\n     * @notice Get a user's record array\r\n     * @param user The user who's record is to be fetched. Returns [] if user not found\r\n     */\r\n    function getUserRecord(address user) external view returns(UsrChkPt[] memory) {\r\n        return (stateOfUsers[user].userRecord);\r\n    }\r\n\r\n    /**\r\n     * @notice Gets the latest array of committed main check points\r\n     */\r\n    function getChkPtRecord() external view returns(CheckPoint[] memory) {\r\n        return (checkPtRecord);\r\n    }\r\n\r\n    /**\r\n     * @notice Stake (deposit) ETB LP tokens\r\n     * @param amountLP The amount of LP tokens (not ETB tokens) to stake\r\n     */\r\n    function stake(uint amountLP) external {\r\n        require(emissionStatus != EmissionStates.ERA_ENDED, \"Staker#stake: Emission Era has ended. Please unstake & claim\");\r\n\r\n        // Cannot use require(block.ts < endTime, \"Blah blah... \") -> will never capture final main chk point updates\r\n        if(block.timestamp >= endTime && emissionStatus == EmissionStates.ERA_ACTIVE) {\r\n            _updateIntervals();                                                         // make sure last main chk point status is captured\r\n            emissionStatus = EmissionStates.ERA_ENDED;\r\n            emit EmissionEnded(startTime, endTime, tokensClaimed);\r\n            return;\r\n        }\r\n        require(emissionStatus == EmissionStates.ERA_ACTIVE || emissionStatus == EmissionStates.INITIALIZED, \"Staker#stake: Emission Era has not started\");\r\n        \r\n        bool txSuccess = LPtoken.transferFrom(msg.sender, address(this), amountLP);\r\n        require(txSuccess, \"Staker#stake: ETB token transfer failed\");\r\n\r\n        // 1st staker starts the emission process (prevents [reward / 0] later in logic)\r\n        if(emissionStatus == EmissionStates.INITIALIZED) {\r\n            emissionStatus = EmissionStates.ERA_ACTIVE;\r\n            startTime = block.timestamp;\r\n            endTime = startTime + eraDuration;\r\n            intervalStart = block.timestamp;\r\n\r\n            emit EmissionStarted(startTime, endTime, releaseAmount);\r\n        }\r\n        \r\n        // make sure intervals are up to date\r\n        _updateIntervals();\r\n\r\n        // UPDATE MAIN CHECK POINT STATE\r\n        totalStaked += amountLP;\r\n\r\n        // USER STATE UPDATE\r\n        uint idx = checkPtRecord.length > 0 ? checkPtRecord.length : 0;                 // index of current (incomplete) main check point. If completed chkPts = [0, 1] then current chkpt idx is 2\r\n        \r\n        UsrChkPt[] memory userRecord = stateOfUsers[msg.sender].userRecord;\r\n        uint userStake = userRecord.length == 0 ? 0 : userRecord[userRecord.length - 1].totUsrStake; // get latest user stake total\r\n\r\n        UsrChkPt memory usrChkPt = UsrChkPt(idx, userStake + amountLP);\r\n        stateOfUsers[msg.sender].userRecord.push(usrChkPt);\r\n    }\r\n\r\n    function _updateIntervals() internal {\r\n        if(block.timestamp > (intervalStart + rewardInterval)) {\r\n            // add the latest state of the last interval as a check point\r\n            uint noOfIntervals = (block.timestamp - intervalStart) / rewardInterval;    // no of intervals since last check point\r\n            CheckPoint memory newChkPt = CheckPoint(intervalStart, totalStaked, noOfIntervals);\r\n            checkPtRecord.push(newChkPt);\r\n            // set params for new interval\r\n            intervalStart += noOfIntervals * rewardInterval;                            // works even if done a few hours/days after last interval\r\n        }\r\n    }\r\n\r\n    /**\r\n     * @notice Unstake (withdraw & claim) tokens. Allows partial unstake.\r\n     * @param amountLP The amount of LP tokens (not ETB tokens) to unstake\r\n     */\r\n    function unStake(uint amountLP) external noReentry() {                              // add reentrancy guard\r\n        require(emissionStatus == EmissionStates.ERA_ACTIVE || emissionStatus == EmissionStates.ERA_ENDED, \"Staker#unstake: Emission Era not active\"); // check emission status\r\n        \r\n        UserState memory usrState = stateOfUsers[msg.sender];\r\n        UsrChkPt[] memory userRecord = usrState.userRecord;\r\n        require(userRecord.length > 0, \"Staker#unstake: Invalid claim. No stake record\"); // check if staker\r\n        uint userStake = userRecord[userRecord.length - 1].totUsrStake;\r\n        require(userStake >= amountLP, \"Staker#unstake: Request amount > balance\");      // check if amount < staked amount\r\n\r\n        // Below is redundant, caught by [userStake > amountLP] check. If user has stake left, there will be reward left\r\n        // require(tokensClaimed <= releaseAmount, \"Staker#unstake: All reward tokens have been claimed\");\r\n\r\n        // make sure intervals are up to date\r\n        _updateIntervals();\r\n\r\n        // set emission status to ENDED if we've past the reward period\r\n        if(emissionStatus == EmissionStates.ERA_ACTIVE && block.timestamp >= endTime) emissionStatus == EmissionStates.ERA_ENDED;\r\n\r\n        // UPDATE MAIN CHECK POINT STATE\r\n        totalStaked -= amountLP;\r\n\r\n        CheckPoint[] memory mainRecord = checkPtRecord;\r\n        uint endIdx = mainRecord.length;                                                // index of current (incomplete) interval\r\n        uint accReward = usrState.latestRemainingReward;                                // could be > 0 if stake & unstake both in 1st interval\r\n\r\n        // loop variables\r\n        uint mainStart; uint mainEnd; uint usrStake; \r\n\r\n        // reward loop: loop over user checkpoints, use params for inner loop over main checkpoints\r\n        for(uint i = usrState.usrIdxOfLastClaim; i < userRecord.length - 1; i++) {\r\n            mainStart = userRecord[i].mainChkPtIndex;                                   // eg.: userRec[6] -> chkPtRec[45]\r\n            mainEnd = userRecord.length > 1 ? userRecord[i + 1].mainChkPtIndex : endIdx; // eg.: userRec[7] -> chkPtRec[83]\r\n            usrStake = userRecord[i].totUsrStake;\r\n\r\n            for(uint j = mainStart; j < mainEnd; j++) {\r\n                accReward += intervalReward * (usrStake / mainRecord[j].totalStaked) * mainRecord[j].intervalsToNext;\r\n            }\r\n        }\r\n\r\n        // USER STATE UPDATE\r\n        stateOfUsers[msg.sender].usrIdxOfLastClaim = userRecord.length - 1;\r\n        uint rewardAmount = accReward * amountLP / userStake;\r\n        stateOfUsers[msg.sender].latestRemainingReward = accReward - rewardAmount;\r\n        // push new user check point\r\n        stateOfUsers[msg.sender].userRecord.push(UsrChkPt(endIdx, userStake - amountLP));\r\n\r\n        tokensClaimed += rewardAmount;\r\n\r\n        // transfer reward\r\n        require(RewToken.transfer(msg.sender, rewardAmount), \"Staker#unstake: ETB reward transfer failed\");\r\n        // transfer stake LP tokens\r\n        require(LPtoken.transfer(msg.sender, amountLP), \"Staker#unstake: LP token transfer failed\");\r\n    }\r\n\r\n}",
  "sourcePath": "C:/Users/DELL/Documents/Projects/etb-proj-2/contracts/Staker.sol",
  "compiler": {
    "name": "solc",
    "version": "0.8.6+commit.11564f7e.Emscripten.clang"
  },
  "schemaVersion": "3.3.4",
  "updatedAt": "2021-09-05T08:51:57.078Z",
  "networkType": "ethereum",
  "devdoc": {
    "kind": "dev",
    "methods": {
      "createEra(uint256,uint256,uint256)": {
        "params": {
          "_durationInDays": "Specify number of days over which [_releaseAmount] should be released",
          "rewardInterval_hours": "Set to 0 to have default of 24 hrs"
        }
      },
      "getUserRecord(address)": {
        "params": {
          "user": "The user who's record is to be fetched. Returns [] if user not found"
        }
      },
      "owner()": {
        "details": "Returns the address of the current owner."
      },
      "renounceOwnership()": {
        "details": "Leaves the contract without owner. It will not be possible to call `onlyOwner` functions anymore. Can only be called by the current owner. NOTE: Renouncing ownership will leave the contract without an owner, thereby removing any functionality that is only available to the owner."
      },
      "stake(uint256)": {
        "params": {
          "amountLP": "The amount of LP tokens (not ETB tokens) to stake"
        }
      },
      "transferOwnership(address)": {
        "details": "Transfers ownership of the contract to a new account (`newOwner`). Can only be called by the current owner."
      },
      "unStake(uint256)": {
        "params": {
          "amountLP": "The amount of LP tokens (not ETB tokens) to unstake"
        }
      }
    },
    "version": 1
  },
  "userdoc": {
    "kind": "user",
    "methods": {
      "constructor": {
        "notice": "Configures the staking (LP) & reward tokens"
      },
      "createEra(uint256,uint256,uint256)": {
        "notice": "Create a new Emission Era - only owner"
      },
      "getChkPtRecord()": {
        "notice": "Gets the latest array of committed main check points"
      },
      "getUserRecord(address)": {
        "notice": "Get a user's record array"
      },
      "stake(uint256)": {
        "notice": "Stake (deposit) ETB LP tokens"
      },
      "unStake(uint256)": {
        "notice": "Unstake (withdraw & claim) tokens. Allows partial unstake."
      }
    },
    "version": 1
  }
}