{
  "contractName": "Staker",
  "abi": [
    {
      "inputs": [
        {
          "internalType": "address",
          "name": "_LPtoken",
          "type": "address"
        },
        {
          "internalType": "address",
          "name": "_RewToken",
          "type": "address"
        }
      ],
      "stateMutability": "nonpayable",
      "type": "constructor"
    },
    {
      "anonymous": false,
      "inputs": [
        {
          "indexed": true,
          "internalType": "uint256",
          "name": "startTime",
          "type": "uint256"
        },
        {
          "indexed": false,
          "internalType": "uint256",
          "name": "endTime",
          "type": "uint256"
        },
        {
          "indexed": false,
          "internalType": "uint256",
          "name": "tokensClaimed",
          "type": "uint256"
        }
      ],
      "name": "EmissionEnded",
      "type": "event"
    },
    {
      "anonymous": false,
      "inputs": [
        {
          "indexed": true,
          "internalType": "uint256",
          "name": "startTime",
          "type": "uint256"
        },
        {
          "indexed": false,
          "internalType": "uint256",
          "name": "endTime",
          "type": "uint256"
        },
        {
          "indexed": false,
          "internalType": "uint256",
          "name": "releaseAmount",
          "type": "uint256"
        }
      ],
      "name": "EmissionStarted",
      "type": "event"
    },
    {
      "anonymous": false,
      "inputs": [
        {
          "indexed": true,
          "internalType": "address",
          "name": "previousOwner",
          "type": "address"
        },
        {
          "indexed": true,
          "internalType": "address",
          "name": "newOwner",
          "type": "address"
        }
      ],
      "name": "OwnershipTransferred",
      "type": "event"
    },
    {
      "inputs": [],
      "name": "LPtoken",
      "outputs": [
        {
          "internalType": "contract IERC20",
          "name": "",
          "type": "address"
        }
      ],
      "stateMutability": "view",
      "type": "function",
      "constant": true
    },
    {
      "inputs": [],
      "name": "RewToken",
      "outputs": [
        {
          "internalType": "contract IERC20",
          "name": "",
          "type": "address"
        }
      ],
      "stateMutability": "view",
      "type": "function",
      "constant": true
    },
    {
      "inputs": [
        {
          "internalType": "uint256",
          "name": "",
          "type": "uint256"
        }
      ],
      "name": "checkPtRecord",
      "outputs": [
        {
          "internalType": "uint256",
          "name": "blocktime",
          "type": "uint256"
        },
        {
          "internalType": "uint256",
          "name": "totalStaked",
          "type": "uint256"
        },
        {
          "internalType": "uint256",
          "name": "intervalsToNext",
          "type": "uint256"
        }
      ],
      "stateMutability": "view",
      "type": "function",
      "constant": true
    },
    {
      "inputs": [],
      "name": "emissionStatus",
      "outputs": [
        {
          "internalType": "enum Staker.EmissionStates",
          "name": "",
          "type": "uint8"
        }
      ],
      "stateMutability": "view",
      "type": "function",
      "constant": true
    },
    {
      "inputs": [],
      "name": "endTime",
      "outputs": [
        {
          "internalType": "uint256",
          "name": "",
          "type": "uint256"
        }
      ],
      "stateMutability": "view",
      "type": "function",
      "constant": true
    },
    {
      "inputs": [],
      "name": "eraDuration",
      "outputs": [
        {
          "internalType": "uint256",
          "name": "",
          "type": "uint256"
        }
      ],
      "stateMutability": "view",
      "type": "function",
      "constant": true
    },
    {
      "inputs": [],
      "name": "intervalReward",
      "outputs": [
        {
          "internalType": "uint256",
          "name": "",
          "type": "uint256"
        }
      ],
      "stateMutability": "view",
      "type": "function",
      "constant": true
    },
    {
      "inputs": [],
      "name": "intervalStart",
      "outputs": [
        {
          "internalType": "uint256",
          "name": "",
          "type": "uint256"
        }
      ],
      "stateMutability": "view",
      "type": "function",
      "constant": true
    },
    {
      "inputs": [],
      "name": "owner",
      "outputs": [
        {
          "internalType": "address",
          "name": "",
          "type": "address"
        }
      ],
      "stateMutability": "view",
      "type": "function",
      "constant": true
    },
    {
      "inputs": [],
      "name": "releaseAmount",
      "outputs": [
        {
          "internalType": "uint256",
          "name": "",
          "type": "uint256"
        }
      ],
      "stateMutability": "view",
      "type": "function",
      "constant": true
    },
    {
      "inputs": [],
      "name": "renounceOwnership",
      "outputs": [],
      "stateMutability": "nonpayable",
      "type": "function"
    },
    {
      "inputs": [],
      "name": "rewardInterval",
      "outputs": [
        {
          "internalType": "uint256",
          "name": "",
          "type": "uint256"
        }
      ],
      "stateMutability": "view",
      "type": "function",
      "constant": true
    },
    {
      "inputs": [],
      "name": "startTime",
      "outputs": [
        {
          "internalType": "uint256",
          "name": "",
          "type": "uint256"
        }
      ],
      "stateMutability": "view",
      "type": "function",
      "constant": true
    },
    {
      "inputs": [
        {
          "internalType": "address",
          "name": "",
          "type": "address"
        }
      ],
      "name": "stateOfUsers",
      "outputs": [
        {
          "internalType": "uint256",
          "name": "usrIdxOfLastClaim",
          "type": "uint256"
        },
        {
          "internalType": "uint256",
          "name": "latestRemainingReward",
          "type": "uint256"
        }
      ],
      "stateMutability": "view",
      "type": "function",
      "constant": true
    },
    {
      "inputs": [],
      "name": "tokensClaimed",
      "outputs": [
        {
          "internalType": "uint256",
          "name": "",
          "type": "uint256"
        }
      ],
      "stateMutability": "view",
      "type": "function",
      "constant": true
    },
    {
      "inputs": [],
      "name": "totalStaked",
      "outputs": [
        {
          "internalType": "uint256",
          "name": "",
          "type": "uint256"
        }
      ],
      "stateMutability": "view",
      "type": "function",
      "constant": true
    },
    {
      "inputs": [
        {
          "internalType": "address",
          "name": "newOwner",
          "type": "address"
        }
      ],
      "name": "transferOwnership",
      "outputs": [],
      "stateMutability": "nonpayable",
      "type": "function"
    },
    {
      "inputs": [
        {
          "internalType": "uint256",
          "name": "_durationInDays",
          "type": "uint256"
        },
        {
          "internalType": "uint256",
          "name": "_releaseAmount",
          "type": "uint256"
        },
        {
          "internalType": "uint256",
          "name": "rewardInterval_hours",
          "type": "uint256"
        }
      ],
      "name": "createEra",
      "outputs": [],
      "stateMutability": "nonpayable",
      "type": "function"
    },
    {
      "inputs": [
        {
          "internalType": "address",
          "name": "user",
          "type": "address"
        }
      ],
      "name": "getUserRecord",
      "outputs": [
        {
          "components": [
            {
              "internalType": "uint256",
              "name": "mainChkPtIndex",
              "type": "uint256"
            },
            {
              "internalType": "uint256",
              "name": "totUsrStake",
              "type": "uint256"
            }
          ],
          "internalType": "struct Staker.UsrChkPt[]",
          "name": "",
          "type": "tuple[]"
        }
      ],
      "stateMutability": "view",
      "type": "function",
      "constant": true
    },
    {
      "inputs": [],
      "name": "getChkPtRecord",
      "outputs": [
        {
          "components": [
            {
              "internalType": "uint256",
              "name": "blocktime",
              "type": "uint256"
            },
            {
              "internalType": "uint256",
              "name": "totalStaked",
              "type": "uint256"
            },
            {
              "internalType": "uint256",
              "name": "intervalsToNext",
              "type": "uint256"
            }
          ],
          "internalType": "struct Staker.CheckPoint[]",
          "name": "",
          "type": "tuple[]"
        }
      ],
      "stateMutability": "view",
      "type": "function",
      "constant": true
    },
    {
      "inputs": [
        {
          "internalType": "uint256",
          "name": "amountLP",
          "type": "uint256"
        }
      ],
      "name": "stake",
      "outputs": [],
      "stateMutability": "nonpayable",
      "type": "function"
    },
    {
      "inputs": [
        {
          "internalType": "uint256",
          "name": "amountLP",
          "type": "uint256"
        }
      ],
      "name": "unStake",
      "outputs": [],
      "stateMutability": "nonpayable",
      "type": "function"
    }
  ],
  "bytecode": "0x60806040526000600660146101000a81548160ff021916908360038111156200002d576200002c6200028f565b5b0217905550620151806007556000600e60006101000a81548160ff0219169083151502179055503480156200006157600080fd5b5060405162002f1638038062002f16833981810160405281019062000087919062000214565b620000a76200009b6200013160201b60201c565b6200013960201b60201c565b81600560006101000a81548173ffffffffffffffffffffffffffffffffffffffff021916908373ffffffffffffffffffffffffffffffffffffffff16021790555080600660006101000a81548173ffffffffffffffffffffffffffffffffffffffff021916908373ffffffffffffffffffffffffffffffffffffffff1602179055505050620002dd565b600033905090565b60008060009054906101000a900473ffffffffffffffffffffffffffffffffffffffff169050816000806101000a81548173ffffffffffffffffffffffffffffffffffffffff021916908373ffffffffffffffffffffffffffffffffffffffff1602179055508173ffffffffffffffffffffffffffffffffffffffff168173ffffffffffffffffffffffffffffffffffffffff167f8be0079c531659141344cd1fd0a4f28419497f9722a3daafe3b4186f6b6457e060405160405180910390a35050565b6000815190506200020e81620002c3565b92915050565b600080604083850312156200022e576200022d620002be565b5b60006200023e85828601620001fd565b92505060206200025185828601620001fd565b9150509250929050565b600062000268826200026f565b9050919050565b600073ffffffffffffffffffffffffffffffffffffffff82169050919050565b7f4e487b7100000000000000000000000000000000000000000000000000000000600052602160045260246000fd5b600080fd5b620002ce816200025b565b8114620002da57600080fd5b50565b612c2980620002ed6000396000f3fe608060405234801561001057600080fd5b50600436106101425760003560e01c80639213baec116100b8578063bec4de3f1161007c578063bec4de3f14610333578063c062dc5f14610351578063c14cba3e1461036f578063ccc16dcc1461038d578063f2fde38b146103ab578063fba67517146103c757610142565b80639213baec1461029f5780639d5393cd146102bd578063a694fc3a146102db578063b44df72d146102f7578063b4a4ee141461031557610142565b806367e2efc61161010a57806367e2efc6146101ed5780636d9e91391461021d578063715018a61461023b57806378e9792514610245578063817b1cd2146102635780638da5cb5b1461028157610142565b806319b419cf146101475780633197cbb61461017957806332da1d5f146101975780634455a38f146101b35780635d3eea91146101d1575b600080fd5b610161600480360381019061015c9190611bca565b6103f8565b6040516101709392919061235b565b60405180910390f35b610181610432565b60405161018e9190612317565b60405180910390f35b6101b160048036038101906101ac9190611bf7565b610438565b005b6101bb6107d3565b6040516101c89190612317565b60405180910390f35b6101eb60048036038101906101e69190611bca565b6107d9565b005b61020760048036038101906102029190611b70565b611082565b60405161021491906120bf565b60405180910390f35b610225611137565b6040516102329190612317565b60405180910390f35b61024361113d565b005b61024d6111c5565b60405161025a9190612317565b60405180910390f35b61026b6111cb565b6040516102789190612317565b60405180910390f35b6102896111d1565b6040516102969190612022565b60405180910390f35b6102a76111fa565b6040516102b49190612317565b60405180910390f35b6102c5611200565b6040516102d291906120fc565b60405180910390f35b6102f560048036038101906102f09190611bca565b611213565b005b6102ff61179e565b60405161030c9190612317565b60405180910390f35b61031d6117a4565b60405161032a91906120e1565b60405180910390f35b61033b6117ca565b6040516103489190612317565b60405180910390f35b6103596117d0565b6040516103669190612317565b60405180910390f35b6103776117d6565b60405161038491906120e1565b60405180910390f35b6103956117fc565b6040516103a2919061209d565b60405180910390f35b6103c560048036038101906103c09190611b70565b611879565b005b6103e160048036038101906103dc9190611b70565b611971565b6040516103ef929190612332565b60405180910390f35b600c818154811061040857600080fd5b90600052602060002090600302016000915090508060000154908060010154908060020154905083565b60035481565b610440611995565b73ffffffffffffffffffffffffffffffffffffffff1661045e6111d1565b73ffffffffffffffffffffffffffffffffffffffff16146104b4576040517f08c379a00000000000000000000000000000000000000000000000000000000081526004016104ab90612237565b60405180910390fd5b600060038111156104c8576104c7612693565b5b600660149054906101000a900460ff1660038111156104ea576104e9612693565b5b1480610528575060038081111561050457610503612693565b5b600660149054906101000a900460ff16600381111561052657610525612693565b5b145b610567576040517f08c379a000000000000000000000000000000000000000000000000000000000815260040161055e90612197565b60405180910390fd5b600183116105aa576040517f08c379a00000000000000000000000000000000000000000000000000000000081526004016105a1906122b7565b60405180910390fd5b60188111156105ee576040517f08c379a00000000000000000000000000000000000000000000000000000000081526004016105e590612297565b60405180910390fd5b60008111801561060b575060008160186106089190612604565b14155b1561064b576040517f08c379a0000000000000000000000000000000000000000000000000000000008152600401610642906122f7565b60405180910390fd5b6000811461066857610e1081610661919061249c565b6007819055505b6000600660009054906101000a900473ffffffffffffffffffffffffffffffffffffffff1673ffffffffffffffffffffffffffffffffffffffff166323b872dd3330866040518463ffffffff1660e01b81526004016106c99392919061203d565b602060405180830381600087803b1580156106e357600080fd5b505af11580156106f7573d6000803e3d6000fd5b505050506040513d601f19601f8201168201806040525081019061071b9190611b9d565b90508061075d576040517f08c379a000000000000000000000000000000000000000000000000000000000815260040161075490612257565b60405180910390fd5b620151808461076c919061249c565b60018190555082600481905550600060075460015461078b919061246b565b90508060045461079b919061246b565b6008819055506001600660146101000a81548160ff021916908360038111156107c7576107c6612693565b5b02179055505050505050565b60015481565b60001515600e60009054906101000a900460ff1615151461082f576040517f08c379a0000000000000000000000000000000000000000000000000000000008152600401610826906121b7565b60405180910390fd5b6001600e60006101000a81548160ff0219169083151502179055506002600381111561085e5761085d612693565b5b600660149054906101000a900460ff1660038111156108805761087f612693565b5b14806108be575060038081111561089a57610899612693565b5b600660149054906101000a900460ff1660038111156108bc576108bb612693565b5b145b6108fd576040517f08c379a00000000000000000000000000000000000000000000000000000000081526004016108f4906122d7565b60405180910390fd5b6000600d60003373ffffffffffffffffffffffffffffffffffffffff1673ffffffffffffffffffffffffffffffffffffffff16815260200190815260200160002060405180606001604052908160008201805480602002602001604051908101604052809291908181526020016000905b828210156109b45783829060005260206000209060020201604051806040016040529081600082015481526020016001820154815250508152602001906001019061096e565b5050505081526020016001820154815260200160028201548152505090506000816000015190506000815111610a1f576040517f08c379a0000000000000000000000000000000000000000000000000000000008152600401610a1690612157565b60405180910390fd5b60008160018351610a3091906124f6565b81518110610a4157610a406126c2565b5b602002602001015160200151905083811015610a92576040517f08c379a0000000000000000000000000000000000000000000000000000000008152600401610a89906121d7565b60405180910390fd5b610a9a61199d565b60026003811115610aae57610aad612693565b5b600660149054906101000a900460ff166003811115610ad057610acf612693565b5b148015610adf57506003544210155b15610b1c57600380811115610af757610af6612693565b5b600660149054906101000a900460ff166003811115610b1957610b18612693565b5b50505b8360096000828254610b2e91906124f6565b925050819055506000600c805480602002602001604051908101604052809291908181526020016000905b82821015610ba95783829060005260206000209060030201604051806060016040529081600082015481526020016001820154815260200160028201548152505081526020019060010190610b59565b505050509050600081519050600085604001519050600080600080896020015190505b60018951610bda91906124f6565b811015610d0257888181518110610bf457610bf36126c2565b5b60200260200101516000015193506001895111610c115785610c3d565b88600182610c1f9190612415565b81518110610c3057610c2f6126c2565b5b6020026020010151600001515b9250888181518110610c5257610c516126c2565b5b602002602001015160200151915060008490505b83811015610cee57878181518110610c8157610c806126c2565b5b602002602001015160400151888281518110610ca057610c9f6126c2565b5b60200260200101516020015184610cb7919061246b565b600854610cc4919061249c565b610cce919061249c565b86610cd99190612415565b95508080610ce6906125bb565b915050610c66565b508080610cfa906125bb565b915050610bcc565b5060018851610d1191906124f6565b600d60003373ffffffffffffffffffffffffffffffffffffffff1673ffffffffffffffffffffffffffffffffffffffff168152602001908152602001600020600101819055506000878b86610d66919061249c565b610d70919061246b565b90508085610d7e91906124f6565b600d60003373ffffffffffffffffffffffffffffffffffffffff1673ffffffffffffffffffffffffffffffffffffffff16815260200190815260200160002060020181905550600d60003373ffffffffffffffffffffffffffffffffffffffff1673ffffffffffffffffffffffffffffffffffffffff16815260200190815260200160002060000160405180604001604052808881526020018d8b610e2391906124f6565b81525090806001815401808255809150506001900390600052602060002090600202016000909190919091506000820151816000015560208201518160010155505080600a6000828254610e779190612415565b92505081905550600660009054906101000a900473ffffffffffffffffffffffffffffffffffffffff1673ffffffffffffffffffffffffffffffffffffffff1663a9059cbb33836040518363ffffffff1660e01b8152600401610edb929190612074565b602060405180830381600087803b158015610ef557600080fd5b505af1158015610f09573d6000803e3d6000fd5b505050506040513d601f19601f82011682018060405250810190610f2d9190611b9d565b610f6c576040517f08c379a0000000000000000000000000000000000000000000000000000000008152600401610f6390612217565b60405180910390fd5b600560009054906101000a900473ffffffffffffffffffffffffffffffffffffffff1673ffffffffffffffffffffffffffffffffffffffff1663a9059cbb338d6040518363ffffffff1660e01b8152600401610fc9929190612074565b602060405180830381600087803b158015610fe357600080fd5b505af1158015610ff7573d6000803e3d6000fd5b505050506040513d601f19601f8201168201806040525081019061101b9190611b9d565b61105a576040517f08c379a000000000000000000000000000000000000000000000000000000000815260040161105190612117565b60405180910390fd5b505050505050505050506000600e60006101000a81548160ff02191690831515021790555050565b6060600d60008373ffffffffffffffffffffffffffffffffffffffff1673ffffffffffffffffffffffffffffffffffffffff168152602001908152602001600020600001805480602002602001604051908101604052809291908181526020016000905b8282101561112c578382906000526020600020906002020160405180604001604052908160008201548152602001600182015481525050815260200190600101906110e6565b505050509050919050565b60085481565b611145611995565b73ffffffffffffffffffffffffffffffffffffffff166111636111d1565b73ffffffffffffffffffffffffffffffffffffffff16146111b9576040517f08c379a00000000000000000000000000000000000000000000000000000000081526004016111b090612237565b60405180910390fd5b6111c36000611a6d565b565b60025481565b60095481565b60008060009054906101000a900473ffffffffffffffffffffffffffffffffffffffff16905090565b600b5481565b600660149054906101000a900460ff1681565b60038081111561122657611225612693565b5b600660149054906101000a900460ff16600381111561124857611247612693565b5b1415611289576040517f08c379a0000000000000000000000000000000000000000000000000000000008152600401611280906121f7565b60405180910390fd5b60035442101580156112ce5750600260038111156112aa576112a9612693565b5b600660149054906101000a900460ff1660038111156112cc576112cb612693565b5b145b1561134b576112db61199d565b6003600660146101000a81548160ff0219169083600381111561130157611300612693565b5b02179055506002547ff7c4cebc1185ca4109b7420ca3aabd945750120d475ad666afa1f94e51eba135600354600a5460405161133e929190612332565b60405180910390a261179b565b6002600381111561135f5761135e612693565b5b600660149054906101000a900460ff16600381111561138157611380612693565b5b14806113c057506001600381111561139c5761139b612693565b5b600660149054906101000a900460ff1660038111156113be576113bd612693565b5b145b6113ff576040517f08c379a00000000000000000000000000000000000000000000000000000000081526004016113f690612177565b60405180910390fd5b6000600560009054906101000a900473ffffffffffffffffffffffffffffffffffffffff1673ffffffffffffffffffffffffffffffffffffffff166323b872dd3330856040518463ffffffff1660e01b81526004016114609392919061203d565b602060405180830381600087803b15801561147a57600080fd5b505af115801561148e573d6000803e3d6000fd5b505050506040513d601f19601f820116820180604052508101906114b29190611b9d565b9050806114f4576040517f08c379a00000000000000000000000000000000000000000000000000000000081526004016114eb90612277565b60405180910390fd5b6001600381111561150857611507612693565b5b600660149054906101000a900460ff16600381111561152a57611529612693565b5b14156115c0576002600660146101000a81548160ff0219169083600381111561155657611555612693565b5b0217905550426002819055506001546002546115729190612415565b60038190555042600b819055506002547f29ff126400182fe635f6d472dde8a41c922ca7c3d1c87f976bfb78a2412015126003546004546040516115b7929190612332565b60405180910390a25b6115c861199d565b81600960008282546115da9190612415565b92505081905550600080600c80549050116115f65760006115fd565b600c805490505b90506000600d60003373ffffffffffffffffffffffffffffffffffffffff1673ffffffffffffffffffffffffffffffffffffffff168152602001908152602001600020600001805480602002602001604051908101604052809291908181526020016000905b828210156116a957838290600052602060002090600202016040518060400160405290816000820154815260200160018201548152505081526020019060010190611663565b5050505090506000808251146116ea5781600183516116c891906124f6565b815181106116d9576116d86126c2565b5b6020026020010151602001516116ed565b60005b905060006040518060400160405280858152602001878461170e9190612415565b8152509050600d60003373ffffffffffffffffffffffffffffffffffffffff1673ffffffffffffffffffffffffffffffffffffffff1681526020019081526020016000206000018190806001815401808255809150506001900390600052602060002090600202016000909190919091506000820151816000015560208201518160010155505050505050505b50565b600a5481565b600660009054906101000a900473ffffffffffffffffffffffffffffffffffffffff1681565b60075481565b60045481565b600560009054906101000a900473ffffffffffffffffffffffffffffffffffffffff1681565b6060600c805480602002602001604051908101604052809291908181526020016000905b828210156118705783829060005260206000209060030201604051806060016040529081600082015481526020016001820154815260200160028201548152505081526020019060010190611820565b50505050905090565b611881611995565b73ffffffffffffffffffffffffffffffffffffffff1661189f6111d1565b73ffffffffffffffffffffffffffffffffffffffff16146118f5576040517f08c379a00000000000000000000000000000000000000000000000000000000081526004016118ec90612237565b60405180910390fd5b600073ffffffffffffffffffffffffffffffffffffffff168173ffffffffffffffffffffffffffffffffffffffff161415611965576040517f08c379a000000000000000000000000000000000000000000000000000000000815260040161195c90612137565b60405180910390fd5b61196e81611a6d565b50565b600d6020528060005260406000206000915090508060010154908060020154905082565b600033905090565b600754600b546119ad9190612415565b421115611a6b576000600754600b54426119c791906124f6565b6119d1919061246b565b905060006040518060600160405280600b5481526020016009548152602001838152509050600c819080600181540180825580915050600190039060005260206000209060030201600090919091909150600082015181600001556020820151816001015560408201518160020155505060075482611a50919061249c565b600b6000828254611a619190612415565b9250508190555050505b565b60008060009054906101000a900473ffffffffffffffffffffffffffffffffffffffff169050816000806101000a81548173ffffffffffffffffffffffffffffffffffffffff021916908373ffffffffffffffffffffffffffffffffffffffff1602179055508173ffffffffffffffffffffffffffffffffffffffff168173ffffffffffffffffffffffffffffffffffffffff167f8be0079c531659141344cd1fd0a4f28419497f9722a3daafe3b4186f6b6457e060405160405180910390a35050565b600081359050611b4081612bae565b92915050565b600081519050611b5581612bc5565b92915050565b600081359050611b6a81612bdc565b92915050565b600060208284031215611b8657611b856126f1565b5b6000611b9484828501611b31565b91505092915050565b600060208284031215611bb357611bb26126f1565b5b6000611bc184828501611b46565b91505092915050565b600060208284031215611be057611bdf6126f1565b5b6000611bee84828501611b5b565b91505092915050565b600080600060608486031215611c1057611c0f6126f1565b5b6000611c1e86828701611b5b565b9350506020611c2f86828701611b5b565b9250506040611c4086828701611b5b565b9150509250925092565b6000611c568383611f93565b60608301905092915050565b6000611c6e8383611fd5565b60408301905092915050565b611c838161252a565b82525050565b6000611c94826123b2565b611c9e81856123e2565b9350611ca983612392565b8060005b83811015611cda578151611cc18882611c4a565b9750611ccc836123c8565b925050600181019050611cad565b5085935050505092915050565b6000611cf2826123bd565b611cfc81856123f3565b9350611d07836123a2565b8060005b83811015611d38578151611d1f8882611c62565b9750611d2a836123d5565b925050600181019050611d0b565b5085935050505092915050565b611d4e81612585565b82525050565b611d5d816125a9565b82525050565b6000611d70602883612404565b9150611d7b826126f6565b604082019050919050565b6000611d93602683612404565b9150611d9e82612745565b604082019050919050565b6000611db6602e83612404565b9150611dc182612794565b604082019050919050565b6000611dd9602a83612404565b9150611de4826127e3565b604082019050919050565b6000611dfc603483612404565b9150611e0782612832565b604082019050919050565b6000611e1f600a83612404565b9150611e2a82612881565b602082019050919050565b6000611e42602883612404565b9150611e4d826128aa565b604082019050919050565b6000611e65603c83612404565b9150611e70826128f9565b604082019050919050565b6000611e88602a83612404565b9150611e9382612948565b604082019050919050565b6000611eab602083612404565b9150611eb682612997565b602082019050919050565b6000611ece602b83612404565b9150611ed9826129c0565b604082019050919050565b6000611ef1602783612404565b9150611efc82612a0f565b604082019050919050565b6000611f14603283612404565b9150611f1f82612a5e565b604082019050919050565b6000611f37603c83612404565b9150611f4282612aad565b604082019050919050565b6000611f5a602783612404565b9150611f6582612afc565b604082019050919050565b6000611f7d603c83612404565b9150611f8882612b4b565b604082019050919050565b606082016000820151611fa96000850182612004565b506020820151611fbc6020850182612004565b506040820151611fcf6040850182612004565b50505050565b604082016000820151611feb6000850182612004565b506020820151611ffe6020850182612004565b50505050565b61200d8161257b565b82525050565b61201c8161257b565b82525050565b60006020820190506120376000830184611c7a565b92915050565b60006060820190506120526000830186611c7a565b61205f6020830185611c7a565b61206c6040830184612013565b949350505050565b60006040820190506120896000830185611c7a565b6120966020830184612013565b9392505050565b600060208201905081810360008301526120b78184611c89565b905092915050565b600060208201905081810360008301526120d98184611ce7565b905092915050565b60006020820190506120f66000830184611d45565b92915050565b60006020820190506121116000830184611d54565b92915050565b6000602082019050818103600083015261213081611d63565b9050919050565b6000602082019050818103600083015261215081611d86565b9050919050565b6000602082019050818103600083015261217081611da9565b9050919050565b6000602082019050818103600083015261219081611dcc565b9050919050565b600060208201905081810360008301526121b081611def565b9050919050565b600060208201905081810360008301526121d081611e12565b9050919050565b600060208201905081810360008301526121f081611e35565b9050919050565b6000602082019050818103600083015261221081611e58565b9050919050565b6000602082019050818103600083015261223081611e7b565b9050919050565b6000602082019050818103600083015261225081611e9e565b9050919050565b6000602082019050818103600083015261227081611ec1565b9050919050565b6000602082019050818103600083015261229081611ee4565b9050919050565b600060208201905081810360008301526122b081611f07565b9050919050565b600060208201905081810360008301526122d081611f2a565b9050919050565b600060208201905081810360008301526122f081611f4d565b9050919050565b6000602082019050818103600083015261231081611f70565b9050919050565b600060208201905061232c6000830184612013565b92915050565b60006040820190506123476000830185612013565b6123546020830184612013565b9392505050565b60006060820190506123706000830186612013565b61237d6020830185612013565b61238a6040830184612013565b949350505050565b6000819050602082019050919050565b6000819050602082019050919050565b600081519050919050565b600081519050919050565b6000602082019050919050565b6000602082019050919050565b600082825260208201905092915050565b600082825260208201905092915050565b600082825260208201905092915050565b60006124208261257b565b915061242b8361257b565b9250827fffffffffffffffffffffffffffffffffffffffffffffffffffffffffffffffff038211156124605761245f612635565b5b828201905092915050565b60006124768261257b565b91506124818361257b565b92508261249157612490612664565b5b828204905092915050565b60006124a78261257b565b91506124b28361257b565b9250817fffffffffffffffffffffffffffffffffffffffffffffffffffffffffffffffff04831182151516156124eb576124ea612635565b5b828202905092915050565b60006125018261257b565b915061250c8361257b565b92508282101561251f5761251e612635565b5b828203905092915050565b60006125358261255b565b9050919050565b60008115159050919050565b600081905061255682612b9a565b919050565b600073ffffffffffffffffffffffffffffffffffffffff82169050919050565b6000819050919050565b600061259082612597565b9050919050565b60006125a28261255b565b9050919050565b60006125b482612548565b9050919050565b60006125c68261257b565b91507fffffffffffffffffffffffffffffffffffffffffffffffffffffffffffffffff8214156125f9576125f8612635565b5b600182019050919050565b600061260f8261257b565b915061261a8361257b565b92508261262a57612629612664565b5b828206905092915050565b7f4e487b7100000000000000000000000000000000000000000000000000000000600052601160045260246000fd5b7f4e487b7100000000000000000000000000000000000000000000000000000000600052601260045260246000fd5b7f4e487b7100000000000000000000000000000000000000000000000000000000600052602160045260246000fd5b7f4e487b7100000000000000000000000000000000000000000000000000000000600052603260045260246000fd5b600080fd5b7f5374616b657223756e7374616b653a204c5020746f6b656e207472616e73666560008201527f72206661696c6564000000000000000000000000000000000000000000000000602082015250565b7f4f776e61626c653a206e6577206f776e657220697320746865207a65726f206160008201527f6464726573730000000000000000000000000000000000000000000000000000602082015250565b7f5374616b657223756e7374616b653a20496e76616c696420636c61696d2e204e60008201527f6f207374616b65207265636f7264000000000000000000000000000000000000602082015250565b7f5374616b6572237374616b653a20456d697373696f6e2045726120686173206e60008201527f6f74207374617274656400000000000000000000000000000000000000000000602082015250565b7f5374616b6572236372656174654572613a20456d697373696f6e20457261206360008201527f757272656e746c7920696e2070726f6772657373000000000000000000000000602082015250565b7f4e6f205265656e74727900000000000000000000000000000000000000000000600082015250565b7f5374616b657223756e7374616b653a205265717565737420616d6f756e74203e60008201527f2062616c616e6365000000000000000000000000000000000000000000000000602082015250565b7f5374616b6572237374616b653a20456d697373696f6e2045726120686173206560008201527f6e6465642e20506c6561736520756e7374616b65202620636c61696d00000000602082015250565b7f5374616b657223756e7374616b653a2045544220726577617264207472616e7360008201527f666572206661696c656400000000000000000000000000000000000000000000602082015250565b7f4f776e61626c653a2063616c6c6572206973206e6f7420746865206f776e6572600082015250565b7f5374616b6572236372656174654572613a2045544220746f6b656e207472616e60008201527f73666572206661696c6564000000000000000000000000000000000000000000602082015250565b7f5374616b6572237374616b653a2045544220746f6b656e207472616e7366657260008201527f206661696c656400000000000000000000000000000000000000000000000000602082015250565b7f5374616b6572236372656174654572613a2052657761726420696e746572766160008201527f6c206d757374206265203c3d2031206461790000000000000000000000000000602082015250565b7f5374616b6572236372656174654572613a20526577617264206475726174696f60008201527f6e206d7573742062652067726561746572207468616e20312064617900000000602082015250565b7f5374616b657223756e7374616b653a20456d697373696f6e20457261206e6f7460008201527f2061637469766500000000000000000000000000000000000000000000000000602082015250565b7f5374616b6572236372656174654572613a2052657761726420696e746572766160008201527f6c206d7573742077686f6c6c792064697669646520696e746f20323400000000602082015250565b60048110612bab57612baa612693565b5b50565b612bb78161252a565b8114612bc257600080fd5b50565b612bce8161253c565b8114612bd957600080fd5b50565b612be58161257b565b8114612bf057600080fd5b5056fea26469706673582212204d54efd92d444968137e715d96f223d8cf44af5d4eeb61183842cfd13e96e41464736f6c63430008060033",
  "immutableReferences": {},
  "source": "// SPDX-License-Identifier: MIT\r\npragma solidity >=0.8.4;\r\n\r\nimport \"@openzeppelin/contracts/access/Ownable.sol\";\r\nimport \"@openzeppelin/contracts/token/ERC20/IERC20.sol\";\r\n\r\n/*  \r\n * The Staker contract controls the emission of ETB tokens as staking reward. \r\n * Method:\r\n * A user's rewards are only sent when a user claims/unstakes.\r\n * To keep rewards proportional and maintain the emission rate, we keep track of \r\n * the total stake and the time that this amount changes. Upon unstaking,\r\n * the user's total/partial stake is calculated and sent along with the \r\n * proportioned reward.\r\n */\r\ncontract Staker is Ownable {\r\n    uint public eraDuration;\r\n    uint public startTime;          // when 1st stake is made\r\n    uint public endTime;            // will be calculated\r\n    uint public releaseAmount;\r\n    IERC20 public LPtoken;\r\n    IERC20 public RewToken;\r\n\r\n    enum EmissionStates { NOT_STARTED, INITIALIZED, ERA_ACTIVE, ERA_ENDED }\r\n    EmissionStates public emissionStatus = EmissionStates.NOT_STARTED;\r\n\r\n    uint public rewardInterval = 24 hours; // reward calculations will not be per block but per interval\r\n    uint public intervalReward;\r\n\r\n    // STAKING STATE:\r\n    uint public totalStaked;        // latest total staked in contract\r\n    uint public tokensClaimed;      // total number of reward tokens claimed since staking genisis\r\n    uint public intervalStart;      // start time of current interval\r\n    \r\n    struct CheckPoint {\r\n        uint blocktime;             // block time at START of new reward interval\r\n        uint totalStaked;           // cumulative stake as at this reward interval\r\n        uint intervalsToNext;       // number of intervals to the next check point: in case of long periods of inactivity\r\n    }\r\n    CheckPoint[] public checkPtRecord; // keeps track of evolution of checkpoints, one per reward interval\r\n\r\n    // USER STATE: keep track of each user's stake amount change, with block time\r\n    struct UsrChkPt {\r\n        uint mainChkPtIndex;        // index of main CheckPoint[] array where change happened\r\n        uint totUsrStake;           // cumulative user stake as at this check point\r\n    }\r\n    struct UserState { \r\n        UsrChkPt[] userRecord;      // track record of all stake changes (stake & unstake)\r\n        uint usrIdxOfLastClaim;    // index of user UsrChkPt[] array where latest reward was calculated: prevents iterating from start every time\r\n        uint latestRemainingReward; // remainder of accumulated reward left if last claim was partial claim: prevents iterating from start every time\r\n    }\r\n    mapping( address => UserState ) public stateOfUsers; // -> use this mapping to iterate over [checkPtRecord] to calc stake reward (and optionally update latest total stake reward)\r\n\r\n    // EVENTS:\r\n    event EmissionStarted(uint indexed startTime, uint endTime, uint releaseAmount);\r\n    event EmissionEnded(uint indexed startTime, uint endTime, uint tokensClaimed);\r\n\r\n    // MODIFIERS:\r\n    bool private entered = false;\r\n    modifier noReentry() {\r\n        require(entered == false, \"No Reentry\");\r\n        entered = true;\r\n        _;\r\n        entered = false;\r\n    }\r\n\r\n    // -----------------------------\r\n    //      MAIN CONTRACT BODY:\r\n    // -----------------------------\r\n    /**\r\n     * @notice Configures the staking (LP) & reward tokens\r\n     */\r\n    constructor (address _LPtoken, address _RewToken) {\r\n        LPtoken = IERC20(_LPtoken);\r\n        RewToken = IERC20(_RewToken);\r\n    }\r\n\r\n    /**\r\n     * @notice Create a new Emission Era - only owner\r\n     * @param _durationInDays Specify number of days over which [_releaseAmount] should be released\r\n     * @param rewardInterval_hours Set to 0 to have default of 24 hrs\r\n     */\r\n    function createEra(uint _durationInDays, uint _releaseAmount, uint rewardInterval_hours) external onlyOwner() {\r\n        require(emissionStatus == EmissionStates.NOT_STARTED || emissionStatus == EmissionStates.ERA_ENDED, \"Staker#createEra: Emission Era currently in progress\");\r\n        require(_durationInDays > 1, \"Staker#createEra: Reward duration must be greater than 1 day\");\r\n        if(rewardInterval_hours > 24) {\r\n            revert(\"Staker#createEra: Reward interval must be <= 1 day\");\r\n        } else if(rewardInterval_hours > 0 && 24 % rewardInterval_hours != 0) {\r\n            revert(\"Staker#createEra: Reward interval must wholly divide into 24\");     // NB: One of: 1, 2, 3, 4, 8, 12, 24\r\n        } else if(rewardInterval_hours != 0) {\r\n            rewardInterval = rewardInterval_hours * 1 hours;                            // if rewardInterval_hours = 0, then it remains on the default value of 24 hrs\r\n        }\r\n\r\n        bool txSuccess = RewToken.transferFrom(msg.sender, address(this), _releaseAmount);\r\n        require(txSuccess, \"Staker#createEra: ETB token transfer failed\");\r\n\r\n        eraDuration = _durationInDays *  1 days;\r\n        releaseAmount = _releaseAmount;\r\n        uint noOfIntervals = eraDuration / rewardInterval;\r\n        intervalReward = releaseAmount / noOfIntervals;\r\n\r\n        emissionStatus = EmissionStates.INITIALIZED;\r\n    }\r\n\r\n    /**\r\n     * @notice Get a user's record array\r\n     * @param user The user who's record is to be fetched. Returns [] if user not found\r\n     */\r\n    function getUserRecord(address user) external view returns(UsrChkPt[] memory) {\r\n        return (stateOfUsers[user].userRecord);\r\n    }\r\n\r\n    /**\r\n     * @notice Gets the latest array of committed main check points\r\n     */\r\n    function getChkPtRecord() external view returns(CheckPoint[] memory) {\r\n        return (checkPtRecord);\r\n    }\r\n\r\n    /**\r\n     * @notice Stake (deposit) ETB LP tokens\r\n     * @param amountLP The amount of LP tokens (not ETB tokens) to stake\r\n     */\r\n    function stake(uint amountLP) external {\r\n        require(emissionStatus != EmissionStates.ERA_ENDED, \"Staker#stake: Emission Era has ended. Please unstake & claim\");\r\n\r\n        // Cannot use require(block.ts < endTime, \"Blah blah... \") -> will never capture final main chk point updates\r\n        if(block.timestamp >= endTime && emissionStatus == EmissionStates.ERA_ACTIVE) {\r\n            _updateIntervals();                                                         // make sure last main chk point status is captured\r\n            emissionStatus = EmissionStates.ERA_ENDED;\r\n            emit EmissionEnded(startTime, endTime, tokensClaimed);\r\n            return;\r\n        }\r\n        require(emissionStatus == EmissionStates.ERA_ACTIVE || emissionStatus == EmissionStates.INITIALIZED, \"Staker#stake: Emission Era has not started\");\r\n        \r\n        bool txSuccess = LPtoken.transferFrom(msg.sender, address(this), amountLP);\r\n        require(txSuccess, \"Staker#stake: ETB token transfer failed\");\r\n\r\n        // 1st staker starts the emission process (prevents [reward / 0] later in logic)\r\n        if(emissionStatus == EmissionStates.INITIALIZED) {\r\n            emissionStatus = EmissionStates.ERA_ACTIVE;\r\n            startTime = block.timestamp;\r\n            endTime = startTime + eraDuration;\r\n            intervalStart = block.timestamp;\r\n\r\n            emit EmissionStarted(startTime, endTime, releaseAmount);\r\n        }\r\n        \r\n        // make sure intervals are up to date\r\n        _updateIntervals();\r\n\r\n        // UPDATE MAIN CHECK POINT STATE\r\n        totalStaked += amountLP;\r\n\r\n        // USER STATE UPDATE\r\n        uint idx = checkPtRecord.length > 0 ? checkPtRecord.length : 0;                 // index of current (incomplete) main check point. If completed chkPts = [0, 1] then current chkpt idx is 2\r\n        \r\n        UsrChkPt[] memory userRecord = stateOfUsers[msg.sender].userRecord;\r\n        uint userStake = userRecord.length == 0 ? 0 : userRecord[userRecord.length - 1].totUsrStake; // get latest user stake total\r\n\r\n        UsrChkPt memory usrChkPt = UsrChkPt(idx, userStake + amountLP);\r\n        stateOfUsers[msg.sender].userRecord.push(usrChkPt);\r\n    }\r\n\r\n    function _updateIntervals() internal {\r\n        if(block.timestamp > (intervalStart + rewardInterval)) {\r\n            // add the latest state of the last interval as a check point\r\n            uint noOfIntervals = (block.timestamp - intervalStart) / rewardInterval;    // no of intervals since last check point\r\n            CheckPoint memory newChkPt = CheckPoint(intervalStart, totalStaked, noOfIntervals);\r\n            checkPtRecord.push(newChkPt);\r\n            // set params for new interval\r\n            intervalStart += noOfIntervals * rewardInterval;                            // works even if done a few hours/days after last interval\r\n        }\r\n    }\r\n\r\n    /**\r\n     * @notice Unstake (withdraw & claim) tokens. Allows partial unstake.\r\n     * @param amountLP The amount of LP tokens (not ETB tokens) to unstake\r\n     */\r\n    function unStake(uint amountLP) external noReentry() {                              // add reentrancy guard\r\n        require(emissionStatus == EmissionStates.ERA_ACTIVE || emissionStatus == EmissionStates.ERA_ENDED, \"Staker#unstake: Emission Era not active\"); // check emission status\r\n        \r\n        UserState memory usrState = stateOfUsers[msg.sender];\r\n        UsrChkPt[] memory userRecord = usrState.userRecord;\r\n        require(userRecord.length > 0, \"Staker#unstake: Invalid claim. No stake record\"); // check if staker\r\n        uint userStake = userRecord[userRecord.length - 1].totUsrStake;\r\n        require(userStake >= amountLP, \"Staker#unstake: Request amount > balance\");      // check if amount < staked amount\r\n\r\n        // Below is redundant, caught by [userStake > amountLP] check. If user has stake left, there will be reward left\r\n        // require(tokensClaimed <= releaseAmount, \"Staker#unstake: All reward tokens have been claimed\");\r\n\r\n        // make sure intervals are up to date\r\n        _updateIntervals();\r\n\r\n        // set emission status to ENDED if we've past the reward period\r\n        if(emissionStatus == EmissionStates.ERA_ACTIVE && block.timestamp >= endTime) emissionStatus == EmissionStates.ERA_ENDED;\r\n\r\n        // UPDATE MAIN CHECK POINT STATE\r\n        totalStaked -= amountLP;\r\n\r\n        CheckPoint[] memory mainRecord = checkPtRecord;\r\n        uint endIdx = mainRecord.length;                                                // index of current (incomplete) interval\r\n        uint accReward = usrState.latestRemainingReward;                                // could be > 0 if stake & unstake both in 1st interval\r\n\r\n        // loop variables\r\n        uint mainStart; uint mainEnd; uint usrStake; \r\n\r\n        // reward loop: loop over user checkpoints, use params for inner loop over main checkpoints\r\n        for(uint i = usrState.usrIdxOfLastClaim; i < userRecord.length - 1; i++) {\r\n            mainStart = userRecord[i].mainChkPtIndex;                                   // eg.: userRec[6] -> chkPtRec[45]\r\n            mainEnd = userRecord.length > 1 ? userRecord[i + 1].mainChkPtIndex : endIdx; // eg.: userRec[7] -> chkPtRec[83]\r\n            usrStake = userRecord[i].totUsrStake;\r\n\r\n            for(uint j = mainStart; j < mainEnd; j++) {\r\n                accReward += intervalReward * (usrStake / mainRecord[j].totalStaked) * mainRecord[j].intervalsToNext;\r\n            }\r\n        }\r\n\r\n        // USER STATE UPDATE\r\n        stateOfUsers[msg.sender].usrIdxOfLastClaim = userRecord.length - 1;\r\n        uint rewardAmount = accReward * amountLP / userStake;\r\n        stateOfUsers[msg.sender].latestRemainingReward = accReward - rewardAmount;\r\n        // push new user check point\r\n        stateOfUsers[msg.sender].userRecord.push(UsrChkPt(endIdx, userStake - amountLP));\r\n\r\n        tokensClaimed += rewardAmount;\r\n\r\n        // transfer reward\r\n        require(RewToken.transfer(msg.sender, rewardAmount), \"Staker#unstake: ETB reward transfer failed\");\r\n        // transfer stake LP tokens\r\n        require(LPtoken.transfer(msg.sender, amountLP), \"Staker#unstake: LP token transfer failed\");\r\n    }\r\n\r\n}",
  "sourcePath": "C:/Users/DELL/Documents/Projects/etb-proj-2/contracts/Staker.sol",
  "compiler": {
    "name": "solc",
    "version": "0.8.6+commit.11564f7e.Emscripten.clang"
  },
  "schemaVersion": "3.3.4",
  "updatedAt": "2021-08-31T19:22:02.622Z",
  "networkType": "ethereum",
  "devdoc": {
    "kind": "dev",
    "methods": {
      "createEra(uint256,uint256,uint256)": {
        "params": {
          "_durationInDays": "Specify number of days over which [_releaseAmount] should be released",
          "rewardInterval_hours": "Set to 0 to have default of 24 hrs"
        }
      },
      "getUserRecord(address)": {
        "params": {
          "user": "The user who's record is to be fetched. Returns [] if user not found"
        }
      },
      "owner()": {
        "details": "Returns the address of the current owner."
      },
      "renounceOwnership()": {
        "details": "Leaves the contract without owner. It will not be possible to call `onlyOwner` functions anymore. Can only be called by the current owner. NOTE: Renouncing ownership will leave the contract without an owner, thereby removing any functionality that is only available to the owner."
      },
      "stake(uint256)": {
        "params": {
          "amountLP": "The amount of LP tokens (not ETB tokens) to stake"
        }
      },
      "transferOwnership(address)": {
        "details": "Transfers ownership of the contract to a new account (`newOwner`). Can only be called by the current owner."
      },
      "unStake(uint256)": {
        "params": {
          "amountLP": "The amount of LP tokens (not ETB tokens) to unstake"
        }
      }
    },
    "version": 1
  },
  "userdoc": {
    "kind": "user",
    "methods": {
      "constructor": {
        "notice": "Configures the staking (LP) & reward tokens"
      },
      "createEra(uint256,uint256,uint256)": {
        "notice": "Create a new Emission Era - only owner"
      },
      "getChkPtRecord()": {
        "notice": "Gets the latest array of committed main check points"
      },
      "getUserRecord(address)": {
        "notice": "Get a user's record array"
      },
      "stake(uint256)": {
        "notice": "Stake (deposit) ETB LP tokens"
      },
      "unStake(uint256)": {
        "notice": "Unstake (withdraw & claim) tokens. Allows partial unstake."
      }
    },
    "version": 1
  }
}